{
  "_format": "hh-sol-artifact-1",
  "contractName": "NFT",
  "sourceName": "contracts/NFT.sol",
  "abi": [
    {
      "inputs": [
        {
          "internalType": "address",
          "name": "marketplaceAddress",
          "type": "address"
        }
      ],
      "stateMutability": "nonpayable",
      "type": "constructor"
    },
    {
      "anonymous": false,
      "inputs": [
        {
          "indexed": true,
          "internalType": "address",
          "name": "owner",
          "type": "address"
        },
        {
          "indexed": true,
          "internalType": "address",
          "name": "approved",
          "type": "address"
        },
        {
          "indexed": true,
          "internalType": "uint256",
          "name": "tokenId",
          "type": "uint256"
        }
      ],
      "name": "Approval",
      "type": "event"
    },
    {
      "anonymous": false,
      "inputs": [
        {
          "indexed": true,
          "internalType": "address",
          "name": "owner",
          "type": "address"
        },
        {
          "indexed": true,
          "internalType": "address",
          "name": "operator",
          "type": "address"
        },
        {
          "indexed": false,
          "internalType": "bool",
          "name": "approved",
          "type": "bool"
        }
      ],
      "name": "ApprovalForAll",
      "type": "event"
    },
    {
      "anonymous": false,
      "inputs": [
        {
          "indexed": false,
          "internalType": "uint256",
          "name": "_fromTokenId",
          "type": "uint256"
        },
        {
          "indexed": false,
          "internalType": "uint256",
          "name": "_toTokenId",
          "type": "uint256"
        }
      ],
      "name": "BatchMetadataUpdate",
      "type": "event"
    },
    {
      "anonymous": false,
      "inputs": [
        {
          "indexed": false,
          "internalType": "uint256",
          "name": "_tokenId",
          "type": "uint256"
        }
      ],
      "name": "MetadataUpdate",
      "type": "event"
    },
    {
      "anonymous": false,
      "inputs": [
        {
          "indexed": true,
          "internalType": "address",
          "name": "from",
          "type": "address"
        },
        {
          "indexed": true,
          "internalType": "address",
          "name": "to",
          "type": "address"
        },
        {
          "indexed": true,
          "internalType": "uint256",
          "name": "tokenId",
          "type": "uint256"
        }
      ],
      "name": "Transfer",
      "type": "event"
    },
    {
      "inputs": [],
      "name": "_tokenIds",
      "outputs": [
        {
          "internalType": "uint256",
          "name": "",
          "type": "uint256"
        }
      ],
      "stateMutability": "view",
      "type": "function"
    },
    {
      "inputs": [
        {
          "internalType": "address",
          "name": "to",
          "type": "address"
        },
        {
          "internalType": "uint256",
          "name": "tokenId",
          "type": "uint256"
        }
      ],
      "name": "approve",
      "outputs": [],
      "stateMutability": "nonpayable",
      "type": "function"
    },
    {
      "inputs": [
        {
          "internalType": "address",
          "name": "owner",
          "type": "address"
        }
      ],
      "name": "balanceOf",
      "outputs": [
        {
          "internalType": "uint256",
          "name": "",
          "type": "uint256"
        }
      ],
      "stateMutability": "view",
      "type": "function"
    },
    {
      "inputs": [],
      "name": "contractAddress",
      "outputs": [
        {
          "internalType": "address",
          "name": "",
          "type": "address"
        }
      ],
      "stateMutability": "view",
      "type": "function"
    },
    {
      "inputs": [
        {
          "internalType": "string",
          "name": "tokenURI",
          "type": "string"
        }
      ],
      "name": "createToken",
      "outputs": [
        {
          "internalType": "uint256",
          "name": "",
          "type": "uint256"
        }
      ],
      "stateMutability": "nonpayable",
      "type": "function"
    },
    {
      "inputs": [
        {
          "internalType": "uint256",
          "name": "tokenId",
          "type": "uint256"
        }
      ],
      "name": "getApproved",
      "outputs": [
        {
          "internalType": "address",
          "name": "",
          "type": "address"
        }
      ],
      "stateMutability": "view",
      "type": "function"
    },
    {
      "inputs": [
        {
          "internalType": "address",
          "name": "owner",
          "type": "address"
        },
        {
          "internalType": "address",
          "name": "operator",
          "type": "address"
        }
      ],
      "name": "isApprovedForAll",
      "outputs": [
        {
          "internalType": "bool",
          "name": "",
          "type": "bool"
        }
      ],
      "stateMutability": "view",
      "type": "function"
    },
    {
      "inputs": [],
      "name": "name",
      "outputs": [
        {
          "internalType": "string",
          "name": "",
          "type": "string"
        }
      ],
      "stateMutability": "view",
      "type": "function"
    },
    {
      "inputs": [
        {
          "internalType": "uint256",
          "name": "tokenId",
          "type": "uint256"
        }
      ],
      "name": "ownerOf",
      "outputs": [
        {
          "internalType": "address",
          "name": "",
          "type": "address"
        }
      ],
      "stateMutability": "view",
      "type": "function"
    },
    {
      "inputs": [
        {
          "internalType": "address",
          "name": "from",
          "type": "address"
        },
        {
          "internalType": "address",
          "name": "to",
          "type": "address"
        },
        {
          "internalType": "uint256",
          "name": "tokenId",
          "type": "uint256"
        }
      ],
      "name": "safeTransferFrom",
      "outputs": [],
      "stateMutability": "nonpayable",
      "type": "function"
    },
    {
      "inputs": [
        {
          "internalType": "address",
          "name": "from",
          "type": "address"
        },
        {
          "internalType": "address",
          "name": "to",
          "type": "address"
        },
        {
          "internalType": "uint256",
          "name": "tokenId",
          "type": "uint256"
        },
        {
          "internalType": "bytes",
          "name": "data",
          "type": "bytes"
        }
      ],
      "name": "safeTransferFrom",
      "outputs": [],
      "stateMutability": "nonpayable",
      "type": "function"
    },
    {
      "inputs": [
        {
          "internalType": "address",
          "name": "operator",
          "type": "address"
        },
        {
          "internalType": "bool",
          "name": "approved",
          "type": "bool"
        }
      ],
      "name": "setApprovalForAll",
      "outputs": [],
      "stateMutability": "nonpayable",
      "type": "function"
    },
    {
      "inputs": [
        {
          "internalType": "bytes4",
          "name": "interfaceId",
          "type": "bytes4"
        }
      ],
      "name": "supportsInterface",
      "outputs": [
        {
          "internalType": "bool",
          "name": "",
          "type": "bool"
        }
      ],
      "stateMutability": "view",
      "type": "function"
    },
    {
      "inputs": [],
      "name": "symbol",
      "outputs": [
        {
          "internalType": "string",
          "name": "",
          "type": "string"
        }
      ],
      "stateMutability": "view",
      "type": "function"
    },
    {
      "inputs": [
        {
          "internalType": "uint256",
          "name": "tokenId",
          "type": "uint256"
        }
      ],
      "name": "tokenURI",
      "outputs": [
        {
          "internalType": "string",
          "name": "",
          "type": "string"
        }
      ],
      "stateMutability": "view",
      "type": "function"
    },
    {
      "inputs": [
        {
          "internalType": "address",
          "name": "from",
          "type": "address"
        },
        {
          "internalType": "address",
          "name": "to",
          "type": "address"
        },
        {
          "internalType": "uint256",
          "name": "tokenId",
          "type": "uint256"
        }
      ],
      "name": "transferFrom",
      "outputs": [],
      "stateMutability": "nonpayable",
      "type": "function"
    }
  ],
  "bytecode": "0x60806040523480156200001157600080fd5b50604051620018513803806200185183398101604081905262000034916200016e565b604080518082018252601081526f4d657461766572736520546f6b656e7360801b6020808301918252835180850190945260048452631351551560e21b9084015281519192916200008891600091620000c8565b5080516200009e906001906020840190620000c8565b5050600880546001600160a01b0319166001600160a01b03939093169290921790915550620001db565b828054620000d6906200019e565b90600052602060002090601f016020900481019282620000fa576000855562000145565b82601f106200011557805160ff191683800117855562000145565b8280016001018555821562000145579182015b828111156200014557825182559160200191906001019062000128565b506200015392915062000157565b5090565b5b8082111562000153576000815560010162000158565b60006020828403121562000180578081fd5b81516001600160a01b038116811462000197578182fd5b9392505050565b600181811c90821680620001b357607f821691505b60208210811415620001d557634e487b7160e01b600052602260045260246000fd5b50919050565b61166680620001eb6000396000f3fe608060405234801561001057600080fd5b50600436106101005760003560e01c806370a0823111610097578063b88d4fde11610066578063b88d4fde14610213578063c87b56dd14610226578063e985e9c514610239578063f6b4dfb41461027557600080fd5b806370a08231146101dc57806395d89b41146101ef578063a22cb465146101f7578063aa46a4001461020a57600080fd5b806323b872dd116100d357806323b872dd1461018257806342842e0e1461019557806345576f94146101a85780636352211e146101c957600080fd5b806301ffc9a71461010557806306fdde031461012d578063081812fc14610142578063095ea7b31461016d575b600080fd5b610118610113366004611354565b610288565b60405190151581526020015b60405180910390f35b6101356102b3565b6040516101249190611482565b6101556101503660046113d2565b610345565b6040516001600160a01b039091168152602001610124565b61018061017b36600461132b565b61036c565b005b61018061019036600461123d565b610487565b6101806101a336600461123d565b6104b8565b6101bb6101b636600461138c565b6104d3565b604051908152602001610124565b6101556101d73660046113d2565b610514565b6101bb6101ea3660046111f1565b610574565b6101356105fa565b6101806102053660046112f1565b610609565b6101bb60075481565b610180610221366004611278565b610618565b6101356102343660046113d2565b610650565b61011861024736600461120b565b6001600160a01b03918216600090815260056020908152604080832093909416825291909152205460ff1690565b600854610155906001600160a01b031681565b60006001600160e01b03198216632483248360e11b14806102ad57506102ad82610761565b92915050565b6060600080546102c2906115c9565b80601f01602080910402602001604051908101604052809291908181526020018280546102ee906115c9565b801561033b5780601f106103105761010080835404028352916020019161033b565b820191906000526020600020905b81548152906001019060200180831161031e57829003601f168201915b5050505050905090565b6000610350826107b1565b506000908152600460205260409020546001600160a01b031690565b600061037782610514565b9050806001600160a01b0316836001600160a01b031614156103ea5760405162461bcd60e51b815260206004820152602160248201527f4552433732313a20617070726f76616c20746f2063757272656e74206f776e656044820152603960f91b60648201526084015b60405180910390fd5b336001600160a01b038216148061040657506104068133610247565b6104785760405162461bcd60e51b815260206004820152603d60248201527f4552433732313a20617070726f76652063616c6c6572206973206e6f7420746f60448201527f6b656e206f776e6572206f7220617070726f76656420666f7220616c6c00000060648201526084016103e1565b6104828383610813565b505050565b6104913382610881565b6104ad5760405162461bcd60e51b81526004016103e190611495565b6104828383836108ff565b61048283838360405180602001604052806000815250610618565b600060075460016104e49190611579565b60078190556104f33382610a63565b6104fd8184610bee565b6008546102ad906001600160a01b03166001610609565b6000818152600260205260408120546001600160a01b0316806102ad5760405162461bcd60e51b8152602060048201526018602482015277115490cdcc8c4e881a5b9d985b1a59081d1bdad95b88125160421b60448201526064016103e1565b60006001600160a01b0382166105de5760405162461bcd60e51b815260206004820152602960248201527f4552433732313a2061646472657373207a65726f206973206e6f7420612076616044820152683634b21037bbb732b960b91b60648201526084016103e1565b506001600160a01b031660009081526003602052604090205490565b6060600180546102c2906115c9565b610614338383610cc0565b5050565b6106223383610881565b61063e5760405162461bcd60e51b81526004016103e190611495565b61064a84848484610d8f565b50505050565b606061065b826107b1565b60008281526006602052604081208054610674906115c9565b80601f01602080910402602001604051908101604052809291908181526020018280546106a0906115c9565b80156106ed5780601f106106c2576101008083540402835291602001916106ed565b820191906000526020600020905b8154815290600101906020018083116106d057829003601f168201915b50505050509050600061070b60408051602081019091526000815290565b905080516000141561071e575092915050565b815115610750578082604051602001610738929190611416565b60405160208183030381529060405292505050919050565b61075984610dc2565b949350505050565b60006001600160e01b031982166380ac58cd60e01b148061079257506001600160e01b03198216635b5e139f60e01b145b806102ad57506301ffc9a760e01b6001600160e01b03198316146102ad565b6000818152600260205260409020546001600160a01b03166108105760405162461bcd60e51b8152602060048201526018602482015277115490cdcc8c4e881a5b9d985b1a59081d1bdad95b88125160421b60448201526064016103e1565b50565b600081815260046020526040902080546001600160a01b0319166001600160a01b038416908117909155819061084882610514565b6001600160a01b03167f8c5be1e5ebec7d5bd14f71427d1e84f3dd0314c0f7b2291e5b200ac8c7c3b92560405160405180910390a45050565b60008061088d83610514565b9050806001600160a01b0316846001600160a01b031614806108d457506001600160a01b0380821660009081526005602090815260408083209388168352929052205460ff165b806107595750836001600160a01b03166108ed84610345565b6001600160a01b031614949350505050565b826001600160a01b031661091282610514565b6001600160a01b0316146109385760405162461bcd60e51b81526004016103e190611534565b6001600160a01b03821661099a5760405162461bcd60e51b8152602060048201526024808201527f4552433732313a207472616e7366657220746f20746865207a65726f206164646044820152637265737360e01b60648201526084016103e1565b826001600160a01b03166109ad82610514565b6001600160a01b0316146109d35760405162461bcd60e51b81526004016103e190611534565b600081815260046020908152604080832080546001600160a01b03199081169091556001600160a01b0387811680865260038552838620805460001901905590871680865283862080546001019055868652600290945282852080549092168417909155905184937fddf252ad1be2c89b69c2b068fc378daa952ba7f163c4a11628f55a4df523b3ef91a4505050565b6001600160a01b038216610ab95760405162461bcd60e51b815260206004820181905260248201527f4552433732313a206d696e7420746f20746865207a65726f206164647265737360448201526064016103e1565b6000818152600260205260409020546001600160a01b031615610b1e5760405162461bcd60e51b815260206004820152601c60248201527f4552433732313a20746f6b656e20616c7265616479206d696e7465640000000060448201526064016103e1565b6000818152600260205260409020546001600160a01b031615610b835760405162461bcd60e51b815260206004820152601c60248201527f4552433732313a20746f6b656e20616c7265616479206d696e7465640000000060448201526064016103e1565b6001600160a01b038216600081815260036020908152604080832080546001019055848352600290915280822080546001600160a01b0319168417905551839291907fddf252ad1be2c89b69c2b068fc378daa952ba7f163c4a11628f55a4df523b3ef908290a45050565b6000828152600260205260409020546001600160a01b0316610c695760405162461bcd60e51b815260206004820152602e60248201527f45524337323155524953746f726167653a2055524920736574206f66206e6f6e60448201526d32bc34b9ba32b73a103a37b5b2b760911b60648201526084016103e1565b60008281526006602090815260409091208251610c88928401906110c6565b506040518281527ff8e1a15aba9398e019f0b49df1a4fde98ee17ae345cb5f6b5e2c27f5033e8ce79060200160405180910390a15050565b816001600160a01b0316836001600160a01b03161415610d225760405162461bcd60e51b815260206004820152601960248201527f4552433732313a20617070726f766520746f2063616c6c65720000000000000060448201526064016103e1565b6001600160a01b03838116600081815260056020908152604080832094871680845294825291829020805460ff191686151590811790915591519182527f17307eab39ab6107e8899845ad3d59bd9653f200f220920489ca2b5937696c31910160405180910390a3505050565b610d9a8484846108ff565b610da684848484610e36565b61064a5760405162461bcd60e51b81526004016103e1906114e2565b6060610dcd826107b1565b6000610de460408051602081019091526000815290565b90506000815111610e045760405180602001604052806000815250610e2f565b80610e0e84610f43565b604051602001610e1f929190611416565b6040516020818303038152906040525b9392505050565b60006001600160a01b0384163b15610f3857604051630a85bd0160e11b81526001600160a01b0385169063150b7a0290610e7a903390899088908890600401611445565b602060405180830381600087803b158015610e9457600080fd5b505af1925050508015610ec4575060408051601f3d908101601f19168201909252610ec191810190611370565b60015b610f1e573d808015610ef2576040519150601f19603f3d011682016040523d82523d6000602084013e610ef7565b606091505b508051610f165760405162461bcd60e51b81526004016103e1906114e2565b805181602001fd5b6001600160e01b031916630a85bd0160e11b149050610759565b506001949350505050565b60606000610f5083610fee565b600101905060008167ffffffffffffffff811115610f7e57634e487b7160e01b600052604160045260246000fd5b6040519080825280601f01601f191660200182016040528015610fa8576020820181803683370190505b5090508181016020015b600019016f181899199a1a9b1b9c1cb0b131b232b360811b600a86061a8153600a8504945084610fe157610fe6565b610fb2565b509392505050565b60008072184f03e93ff9f4daa797ed6e38ed64bf6a1f0160401b831061102d5772184f03e93ff9f4daa797ed6e38ed64bf6a1f0160401b830492506040015b6d04ee2d6d415b85acef81000000008310611059576d04ee2d6d415b85acef8100000000830492506020015b662386f26fc10000831061107757662386f26fc10000830492506010015b6305f5e100831061108f576305f5e100830492506008015b61271083106110a357612710830492506004015b606483106110b5576064830492506002015b600a83106102ad5760010192915050565b8280546110d2906115c9565b90600052602060002090601f0160209004810192826110f4576000855561113a565b82601f1061110d57805160ff191683800117855561113a565b8280016001018555821561113a579182015b8281111561113a57825182559160200191906001019061111f565b5061114692915061114a565b5090565b5b80821115611146576000815560010161114b565b600067ffffffffffffffff8084111561117a5761117a611604565b604051601f8501601f19908116603f011681019082821181831017156111a2576111a2611604565b816040528093508581528686860111156111bb57600080fd5b858560208301376000602087830101525050509392505050565b80356001600160a01b03811681146111ec57600080fd5b919050565b600060208284031215611202578081fd5b610e2f826111d5565b6000806040838503121561121d578081fd5b611226836111d5565b9150611234602084016111d5565b90509250929050565b600080600060608486031215611251578081fd5b61125a846111d5565b9250611268602085016111d5565b9150604084013590509250925092565b6000806000806080858703121561128d578081fd5b611296856111d5565b93506112a4602086016111d5565b925060408501359150606085013567ffffffffffffffff8111156112c6578182fd5b8501601f810187136112d6578182fd5b6112e58782356020840161115f565b91505092959194509250565b60008060408385031215611303578182fd5b61130c836111d5565b915060208301358015158114611320578182fd5b809150509250929050565b6000806040838503121561133d578182fd5b611346836111d5565b946020939093013593505050565b600060208284031215611365578081fd5b8135610e2f8161161a565b600060208284031215611381578081fd5b8151610e2f8161161a565b60006020828403121561139d578081fd5b813567ffffffffffffffff8111156113b3578182fd5b8201601f810184136113c3578182fd5b6107598482356020840161115f565b6000602082840312156113e3578081fd5b5035919050565b6000815180845261140281602086016020860161159d565b601f01601f19169290920160200192915050565b6000835161142881846020880161159d565b83519083019061143c81836020880161159d565b01949350505050565b6001600160a01b0385811682528416602082015260408101839052608060608201819052600090611478908301846113ea565b9695505050505050565b602081526000610e2f60208301846113ea565b6020808252602d908201527f4552433732313a2063616c6c6572206973206e6f7420746f6b656e206f776e6560408201526c1c881bdc88185c1c1c9bdd9959609a1b606082015260800190565b60208082526032908201527f4552433732313a207472616e7366657220746f206e6f6e20455243373231526560408201527131b2b4bb32b91034b6b83632b6b2b73a32b960711b606082015260800190565b60208082526025908201527f4552433732313a207472616e736665722066726f6d20696e636f72726563742060408201526437bbb732b960d91b606082015260800190565b6000821982111561159857634e487b7160e01b81526011600452602481fd5b500190565b60005b838110156115b85781810151838201526020016115a0565b8381111561064a5750506000910152565b600181811c908216806115dd57607f821691505b602082108114156115fe57634e487b7160e01b600052602260045260246000fd5b50919050565b634e487b7160e01b600052604160045260246000fd5b6001600160e01b03198116811461081057600080fdfea264697066735822122086abb5cd3ce5eda7d06e756b768a605c82aa3e875c21b836b69534df0f77cc9964736f6c63430008040033",
  "linkReferences": {},
  "deployedLinkReferences": {}
}