{
  "_format": "hh-sol-artifact-1",
  "contractName": "NFTMarketplace",
  "sourceName": "contracts/NFTMarket.sol",
  "abi": [
    {
      "inputs": [],
      "stateMutability": "nonpayable",
      "type": "constructor"
    },
    {
      "anonymous": false,
      "inputs": [
        {
          "indexed": true,
          "internalType": "uint256",
          "name": "itemId",
          "type": "uint256"
        },
        {
          "indexed": true,
          "internalType": "address",
          "name": "nftContract",
          "type": "address"
        },
        {
          "indexed": true,
          "internalType": "uint256",
          "name": "tokenId",
          "type": "uint256"
        },
        {
          "indexed": false,
          "internalType": "address",
          "name": "seller",
          "type": "address"
        },
        {
          "indexed": false,
          "internalType": "address",
          "name": "buyer",
          "type": "address"
        },
        {
          "indexed": false,
          "internalType": "uint256",
          "name": "startingPrice",
          "type": "uint256"
        },
        {
          "indexed": false,
          "internalType": "uint256",
          "name": "highestBid",
          "type": "uint256"
        },
        {
          "indexed": false,
          "internalType": "uint256",
          "name": "deadline",
          "type": "uint256"
        },
        {
          "indexed": false,
          "internalType": "bool",
          "name": "isForAuction",
          "type": "bool"
        }
      ],
      "name": "ItemForAuctionCreated",
      "type": "event"
    },
    {
      "anonymous": false,
      "inputs": [
        {
          "indexed": true,
          "internalType": "uint256",
          "name": "itemId",
          "type": "uint256"
        },
        {
          "indexed": true,
          "internalType": "address",
          "name": "nftContract",
          "type": "address"
        },
        {
          "indexed": true,
          "internalType": "uint256",
          "name": "tokenId",
          "type": "uint256"
        },
        {
          "indexed": false,
          "internalType": "address",
          "name": "seller",
          "type": "address"
        },
        {
          "indexed": false,
          "internalType": "address",
          "name": "owner",
          "type": "address"
        },
        {
          "indexed": false,
          "internalType": "uint256",
          "name": "price",
          "type": "uint256"
        },
        {
          "indexed": false,
          "internalType": "bool",
          "name": "isForSale",
          "type": "bool"
        },
        {
          "indexed": false,
          "internalType": "address",
          "name": "creator",
          "type": "address"
        }
      ],
      "name": "MarketItemCreated",
      "type": "event"
    },
    {
      "inputs": [
        {
          "internalType": "uint256",
          "name": "itemId",
          "type": "uint256"
        }
      ],
      "name": "bid",
      "outputs": [],
      "stateMutability": "payable",
      "type": "function"
    },
    {
      "inputs": [
        {
          "internalType": "address",
          "name": "nftContract",
          "type": "address"
        },
        {
          "internalType": "uint256",
          "name": "tokenId",
          "type": "uint256"
        },
        {
          "internalType": "uint256",
          "name": "price",
          "type": "uint256"
        }
      ],
      "name": "createMarketItem",
      "outputs": [],
      "stateMutability": "payable",
      "type": "function"
    },
    {
      "inputs": [
        {
          "internalType": "address",
          "name": "nftContract",
          "type": "address"
        },
        {
          "internalType": "uint256",
          "name": "itemId",
          "type": "uint256"
        }
      ],
      "name": "createMarketSale",
      "outputs": [],
      "stateMutability": "payable",
      "type": "function"
    },
    {
      "inputs": [
        {
          "internalType": "address",
          "name": "nftContract",
          "type": "address"
        },
        {
          "internalType": "uint256",
          "name": "itemId",
          "type": "uint256"
        }
      ],
      "name": "deleteMarketSale",
      "outputs": [],
      "stateMutability": "nonpayable",
      "type": "function"
    },
    {
      "inputs": [
        {
          "internalType": "uint256",
          "name": "itemId",
          "type": "uint256"
        },
        {
          "internalType": "address",
          "name": "nftContract",
          "type": "address"
        }
      ],
      "name": "deleteNFTAuction",
      "outputs": [],
      "stateMutability": "nonpayable",
      "type": "function"
    },
    {
      "inputs": [],
      "name": "fetchForAuction",
      "outputs": [
        {
          "components": [
            {
              "internalType": "uint256",
              "name": "itemId",
              "type": "uint256"
            },
            {
              "internalType": "address",
              "name": "nftContract",
              "type": "address"
            },
            {
              "internalType": "uint256",
              "name": "tokenId",
              "type": "uint256"
            },
            {
              "internalType": "address payable",
              "name": "seller",
              "type": "address"
            },
            {
              "internalType": "address payable",
              "name": "owner",
              "type": "address"
            },
            {
              "internalType": "uint256",
              "name": "startingPrice",
              "type": "uint256"
            },
            {
              "internalType": "uint256",
              "name": "highestBid",
              "type": "uint256"
            },
            {
              "internalType": "uint256",
              "name": "deadline",
              "type": "uint256"
            },
            {
              "internalType": "bool",
              "name": "isForAuction",
              "type": "bool"
            }
          ],
          "internalType": "struct NFTMarketplace.ItemForAuction[]",
          "name": "",
          "type": "tuple[]"
        }
      ],
      "stateMutability": "view",
      "type": "function"
    },
    {
      "inputs": [],
      "name": "fetchItemsCreated",
      "outputs": [
        {
          "components": [
            {
              "internalType": "uint256",
              "name": "itemId",
              "type": "uint256"
            },
            {
              "internalType": "address",
              "name": "nftContract",
              "type": "address"
            },
            {
              "internalType": "uint256",
              "name": "tokenId",
              "type": "uint256"
            },
            {
              "internalType": "address payable",
              "name": "seller",
              "type": "address"
            },
            {
              "internalType": "address payable",
              "name": "owner",
              "type": "address"
            },
            {
              "internalType": "uint256",
              "name": "price",
              "type": "uint256"
            },
            {
              "internalType": "bool",
              "name": "isForSale",
              "type": "bool"
            },
            {
              "internalType": "address",
              "name": "creator",
              "type": "address"
            }
          ],
          "internalType": "struct NFTMarketplace.MarketItem[]",
          "name": "",
          "type": "tuple[]"
        }
      ],
      "stateMutability": "view",
      "type": "function"
    },
    {
      "inputs": [],
      "name": "fetchMarketItems",
      "outputs": [
        {
          "components": [
            {
              "internalType": "uint256",
              "name": "itemId",
              "type": "uint256"
            },
            {
              "internalType": "address",
              "name": "nftContract",
              "type": "address"
            },
            {
              "internalType": "uint256",
              "name": "tokenId",
              "type": "uint256"
            },
            {
              "internalType": "address payable",
              "name": "seller",
              "type": "address"
            },
            {
              "internalType": "address payable",
              "name": "owner",
              "type": "address"
            },
            {
              "internalType": "uint256",
              "name": "price",
              "type": "uint256"
            },
            {
              "internalType": "bool",
              "name": "isForSale",
              "type": "bool"
            },
            {
              "internalType": "address",
              "name": "creator",
              "type": "address"
            }
          ],
          "internalType": "struct NFTMarketplace.MarketItem[]",
          "name": "",
          "type": "tuple[]"
        }
      ],
      "stateMutability": "view",
      "type": "function"
    },
    {
      "inputs": [],
      "name": "fetchMyNFTs",
      "outputs": [
        {
          "components": [
            {
              "internalType": "uint256",
              "name": "itemId",
              "type": "uint256"
            },
            {
              "internalType": "address",
              "name": "nftContract",
              "type": "address"
            },
            {
              "internalType": "uint256",
              "name": "tokenId",
              "type": "uint256"
            },
            {
              "internalType": "address payable",
              "name": "seller",
              "type": "address"
            },
            {
              "internalType": "address payable",
              "name": "owner",
              "type": "address"
            },
            {
              "internalType": "uint256",
              "name": "price",
              "type": "uint256"
            },
            {
              "internalType": "bool",
              "name": "isForSale",
              "type": "bool"
            },
            {
              "internalType": "address",
              "name": "creator",
              "type": "address"
            }
          ],
          "internalType": "struct NFTMarketplace.MarketItem[]",
          "name": "",
          "type": "tuple[]"
        }
      ],
      "stateMutability": "view",
      "type": "function"
    },
    {
      "inputs": [
        {
          "internalType": "address",
          "name": "user",
          "type": "address"
        }
      ],
      "name": "fetchOwnedItems",
      "outputs": [
        {
          "components": [
            {
              "internalType": "uint256",
              "name": "itemId",
              "type": "uint256"
            },
            {
              "internalType": "address",
              "name": "nftContract",
              "type": "address"
            },
            {
              "internalType": "uint256",
              "name": "tokenId",
              "type": "uint256"
            },
            {
              "internalType": "address payable",
              "name": "seller",
              "type": "address"
            },
            {
              "internalType": "address payable",
              "name": "owner",
              "type": "address"
            },
            {
              "internalType": "uint256",
              "name": "price",
              "type": "uint256"
            },
            {
              "internalType": "bool",
              "name": "isForSale",
              "type": "bool"
            },
            {
              "internalType": "address",
              "name": "creator",
              "type": "address"
            }
          ],
          "internalType": "struct NFTMarketplace.MarketItem[]",
          "name": "",
          "type": "tuple[]"
        }
      ],
      "stateMutability": "view",
      "type": "function"
    },
    {
      "inputs": [
        {
          "internalType": "address",
          "name": "user",
          "type": "address"
        }
      ],
      "name": "fetchUserListedNFTs",
      "outputs": [
        {
          "components": [
            {
              "internalType": "uint256",
              "name": "itemId",
              "type": "uint256"
            },
            {
              "internalType": "address",
              "name": "nftContract",
              "type": "address"
            },
            {
              "internalType": "uint256",
              "name": "tokenId",
              "type": "uint256"
            },
            {
              "internalType": "address payable",
              "name": "seller",
              "type": "address"
            },
            {
              "internalType": "address payable",
              "name": "owner",
              "type": "address"
            },
            {
              "internalType": "uint256",
              "name": "price",
              "type": "uint256"
            },
            {
              "internalType": "bool",
              "name": "isForSale",
              "type": "bool"
            },
            {
              "internalType": "address",
              "name": "creator",
              "type": "address"
            }
          ],
          "internalType": "struct NFTMarketplace.MarketItem[]",
          "name": "",
          "type": "tuple[]"
        }
      ],
      "stateMutability": "view",
      "type": "function"
    },
    {
      "inputs": [
        {
          "internalType": "uint256",
          "name": "itemId",
          "type": "uint256"
        }
      ],
      "name": "finishNFTAuction",
      "outputs": [],
      "stateMutability": "nonpayable",
      "type": "function"
    },
    {
      "inputs": [],
      "name": "getListingPrice",
      "outputs": [
        {
          "internalType": "uint256",
          "name": "",
          "type": "uint256"
        }
      ],
      "stateMutability": "view",
      "type": "function"
    },
    {
      "inputs": [
        {
          "internalType": "uint256",
          "name": "",
          "type": "uint256"
        }
      ],
      "name": "idToItemForAuction",
      "outputs": [
        {
          "internalType": "uint256",
          "name": "itemId",
          "type": "uint256"
        },
        {
          "internalType": "address",
          "name": "nftContract",
          "type": "address"
        },
        {
          "internalType": "uint256",
          "name": "tokenId",
          "type": "uint256"
        },
        {
          "internalType": "address payable",
          "name": "seller",
          "type": "address"
        },
        {
          "internalType": "address payable",
          "name": "owner",
          "type": "address"
        },
        {
          "internalType": "uint256",
          "name": "startingPrice",
          "type": "uint256"
        },
        {
          "internalType": "uint256",
          "name": "highestBid",
          "type": "uint256"
        },
        {
          "internalType": "uint256",
          "name": "deadline",
          "type": "uint256"
        },
        {
          "internalType": "bool",
          "name": "isForAuction",
          "type": "bool"
        }
      ],
      "stateMutability": "view",
      "type": "function"
    },
    {
      "inputs": [
        {
          "internalType": "uint256",
          "name": "",
          "type": "uint256"
        }
      ],
      "name": "idToMarketItem",
      "outputs": [
        {
          "internalType": "uint256",
          "name": "itemId",
          "type": "uint256"
        },
        {
          "internalType": "address",
          "name": "nftContract",
          "type": "address"
        },
        {
          "internalType": "uint256",
          "name": "tokenId",
          "type": "uint256"
        },
        {
          "internalType": "address payable",
          "name": "seller",
          "type": "address"
        },
        {
          "internalType": "address payable",
          "name": "owner",
          "type": "address"
        },
        {
          "internalType": "uint256",
          "name": "price",
          "type": "uint256"
        },
        {
          "internalType": "bool",
          "name": "isForSale",
          "type": "bool"
        },
        {
          "internalType": "address",
          "name": "creator",
          "type": "address"
        }
      ],
      "stateMutability": "view",
      "type": "function"
    },
    {
      "inputs": [
        {
          "internalType": "address",
          "name": "nftContract",
          "type": "address"
        },
        {
          "internalType": "uint256",
          "name": "tokenId",
          "type": "uint256"
        },
        {
          "internalType": "uint256",
          "name": "price",
          "type": "uint256"
        },
        {
          "internalType": "uint256",
          "name": "deadline",
          "type": "uint256"
        }
      ],
      "name": "startNFTAuction",
      "outputs": [],
      "stateMutability": "payable",
      "type": "function"
    }
  ],
  "bytecode": "0x60806040526658d15e1762800060055534801561001b57600080fd5b506001600055600480546001600160a01b03191633179055612a4c806100426000396000f3fe6080604052600436106100f35760003560e01c8063a3c8bfb11161008a578063cd0227e211610059578063cd0227e2146102ea578063df0f93441461030c578063e61a70c01461032c578063f064c32e146103e857600080fd5b8063a3c8bfb114610277578063be5ba2bc14610297578063c23b139e146102b7578063c5ce138b146102ca57600080fd5b80632b600ced116100c65780632b600ced1461021c578063454a2ab31461023c57806355e501b11461025157806358eb2df51461026457600080fd5b80630ac9363c146100f85780630f08efe0146101c757806312e85585146101e9578063202e374014610207575b600080fd5b34801561010457600080fd5b5061016e61011336600461273f565b600760208190526000918252604090912080546001820154600283015460038401546004850154600586015460068701549787015460089097015495976001600160a01b039586169794969386169590921693909260ff1689565b60408051998a526001600160a01b0398891660208b0152890196909652938616606088015294909116608086015260a085015260c084019290925260e08301919091521515610100820152610120015b60405180910390f35b3480156101d357600080fd5b506101dc6103fd565b6040516101be91906128b3565b3480156101f557600080fd5b506005546040519081526020016101be565b34801561021357600080fd5b506101dc6105e9565b34801561022857600080fd5b506101dc610237366004612667565b6108bd565b61024f61024a36600461273f565b610b32565b005b61024f61025f366004612705565b610db6565b61024f6102723660046126d1565b6111f0565b34801561028357600080fd5b506101dc610292366004612667565b6115fe565b3480156102a357600080fd5b5061024f6102b23660046126a6565b611861565b61024f6102c53660046126a6565b6119de565b3480156102d657600080fd5b5061024f6102e5366004612757565b611bba565b3480156102f657600080fd5b506102ff611ef2565b6040516101be91906127f5565b34801561031857600080fd5b5061024f61032736600461273f565b6120b7565b34801561033857600080fd5b506103a061034736600461273f565b6006602081905260009182526040909120805460018201546002830154600384015460048501546005860154959096015493956001600160a01b0393841695929491841693908116929160ff8116916101009091041688565b604080519889526001600160a01b0397881660208a01528801959095529285166060870152908416608086015260a0850152151560c08401521660e0820152610100016101be565b3480156103f457600080fd5b506101dc6122e0565b6060600061040a60015490565b905060008060005b8381101561046557600660006104298360016129b5565b815260208101919091526040016000206006015460ff1615610453576104506001846129b5565b92505b8061045d816129cd565b915050610412565b5060008267ffffffffffffffff81111561048f57634e487b7160e01b600052604160045260246000fd5b6040519080825280602002602001820160405280156104c857816020015b6104b5612623565b8152602001906001900390816104ad5790505b50905060005b848110156105e057600660006104e58360016129b5565b815260208101919091526040016000206006015460ff16156105ce57600061050e8260016129b5565b600081815260066020818152604092839020835161010080820186528254825260018301546001600160a01b0390811694830194909452600283015495820195909552600382015483166060820152600482015483166080820152600582015460a08201529281015460ff8116151560c0850152939093041660e0820152855192935090918590879081106105b357634e487b7160e01b600052603260045260246000fd5b60209081029190910101526105c96001866129b5565b945050505b806105d8816129cd565b9150506104ce565b50949350505050565b606060006105f660015490565b905060008060005b838110156106bf5733600660006106168460016129b5565b81526020810191909152604001600020600401546001600160a01b031614801561066b5750600060068161064b8460016129b5565b81526020810191909152604001600020600301546001600160a01b031614155b801561069a5750600660006106818360016129b5565b815260208101919091526040016000206006015460ff16155b156106ad576106aa6001846129b5565b92505b806106b7816129cd565b9150506105fe565b5060008267ffffffffffffffff8111156106e957634e487b7160e01b600052604160045260246000fd5b60405190808252806020026020018201604052801561072257816020015b61070f612623565b8152602001906001900390816107075790505b50905060005b848110156105e05733600660006107408460016129b5565b81526020810191909152604001600020600401546001600160a01b0316148015610795575060006006816107758460016129b5565b81526020810191909152604001600020600301546001600160a01b031614155b80156107c45750600660006107ab8360016129b5565b815260208101919091526040016000206006015460ff16155b156108ab5760006006816107d98460016129b5565b81526020808201929092526040908101600090812054808252600680855291839020835161010080820186528254825260018301546001600160a01b0390811697830197909752600283015495820195909552600382015486166060820152600482015486166080820152600582015460a08201529281015460ff8116151560c08501529390930490931660e08201528551929350909185908790811061089057634e487b7160e01b600052603260045260246000fd5b60209081029190910101526108a66001866129b5565b945050505b806108b5816129cd565b915050610728565b606060006108ca60015490565b905060008060005b83811015610969576001600160a01b038616600660006108f38460016129b5565b81526020810191909152604001600020600301546001600160a01b03161480156109445750600660006109278360016129b5565b815260208101919091526040016000206006015460ff1615156001145b15610957576109546001846129b5565b92505b80610961816129cd565b9150506108d2565b5060008267ffffffffffffffff81111561099357634e487b7160e01b600052604160045260246000fd5b6040519080825280602002602001820160405280156109cc57816020015b6109b9612623565b8152602001906001900390816109b15790505b50905060005b84811015610b28576001600160a01b038716600660006109f38460016129b5565b81526020810191909152604001600020600301546001600160a01b0316148015610a44575060066000610a278360016129b5565b815260208101919091526040016000206006015460ff1615156001145b15610b16576000610a568260016129b5565b600081815260066020818152604092839020835161010080820186528254825260018301546001600160a01b0390811694830194909452600283015495820195909552600382015483166060820152600482015483166080820152600582015460a08201529281015460ff8116151560c0850152939093041660e082015285519293509091859087908110610afb57634e487b7160e01b600052603260045260246000fd5b6020908102919091010152610b116001866129b5565b945050505b80610b20816129cd565b9150506109d2565b5095945050505050565b6000818152600760205260409020600354610b4e9060016129b5565b8210610b5957600080fd5b60038101546001600160a01b0316331415610bac5760405162461bcd60e51b815260206004820152600e60248201526d2cb7ba9030b9329039b2b63632b960911b60448201526064015b60405180910390fd5b60048101546001600160a01b0316331415610c015760405162461bcd60e51b8152602060048201526015602482015274596f7520686176652068696768657374206269642160581b6044820152606401610ba3565b8060050154341015610c445760405162461bcd60e51b815260206004820152600c60248201526b57726f6e672050726963652160a01b6044820152606401610ba3565b80600601543411610c865760405162461bcd60e51b815260206004820152600c60248201526b57726f6e672050726963652160a01b6044820152606401610ba3565b600881015460ff161515600114610ccd5760405162461bcd60e51b815260206004820152600b60248201526a43616e6e6f74206275792160a81b6044820152606401610ba3565b80600701544210610d0c5760405162461bcd60e51b8152602060048201526009602482015268446561646c696e652160b81b6044820152606401610ba3565b60048101546001600160a01b031615610d6157600481015460068201546040516001600160a01b039092169181156108fc0291906000818181858888f19350505050158015610d5f573d6000803e3d6000fd5b505b6004810180546001600160a01b031916331790553460068201819055604080518082019091526015815274034b73337973434b3b432b9ba2134b2102722ab9d1605d1b6020820152610db2916124dd565b5050565b610dbe612522565b610df460405180604001604052806014815260200173027232a20bab1ba34b7b7102a27a5a2a724a21d160651b815250846124dd565b6005543414610e455760405162461bcd60e51b815260206004820152601a60248201527f596f75206d75737420706179206c697374696e672070726963650000000000006044820152606401610ba3565b604080518082018252601181527002a27a5a2a724a21037bbb732b937b31d1607d1b602082015290516331a9108f60e11b8152600481018590528591610eee916001600160a01b03841690636352211e9060240160206040518083038186803b158015610eb157600080fd5b505afa158015610ec5573d6000803e3d6000fd5b505050506040513d601f19601f82011682018060405250810190610ee9919061268a565b61257c565b6040516331a9108f60e11b81526004810185905233906001600160a01b03831690636352211e9060240160206040518083038186803b158015610f3057600080fd5b505afa158015610f44573d6000803e3d6000fd5b505050506040513d601f19601f82011682018060405250810190610f68919061268a565b6001600160a01b031614610fbe5760405162461bcd60e51b815260206004820152601e60248201527f596f7520617265206e6f74206f776e6572206f662074686973204e46542100006044820152606401610ba3565b6004546005546040516001600160a01b039092169181156108fc0291906000818181858888f19350505050158015610ffa573d6000803e3d6000fd5b506040516323b872dd60e01b81526001600160a01b038216906323b872dd9061102b903390309089906004016127d1565b600060405180830381600087803b15801561104557600080fd5b505af1158015611059573d6000803e3d6000fd5b5050505061106b600380546001019055565b600061107660035490565b90506110a96040518060400160405280600f81526020016e034ba32b6a4b220bab1ba34b7b71d1608d1b815250826124dd565b60008181526007602052604090206008015460ff161561110b5760405162461bcd60e51b815260206004820152601f60248201527f54686973206974656d20697320616c726561647920696e2061756374696f6e006044820152606401610ba3565b60408051610120810182528281526001600160a01b0388811660208084019182528385018a8152336060860190815260006080870181815260a088018d815260c0890183815260e08a018e815260016101008c018181529d86526007988990529b85209a518b5597518a8c0180546001600160a01b0319908116928c16929092179055955160028b0155935160038a0180548716918a169190911790559051600489018054909516971696909617909255935160058601559251600685015590519083015592516008909101805460ff19169115159190911790559055505b50505050565b6111f8612522565b60055434146112495760405162461bcd60e51b815260206004820152601a60248201527f596f75206d75737420706179206c697374696e672070726963650000000000006044820152606401610ba3565b6000828152600660208190526040909120015460ff16156112ac5760405162461bcd60e51b815260206004820152601b60248201527f5468697320697320616c7265616479206f6e20746865206c69737400000000006044820152606401610ba3565b6000828152600660205260409020541561134f576040805180820182526013815272034b22a37a6b0b935b2ba24ba32b69d1012b99606d1b60208083019190915260008581526006909152919091206004015461131291906001600160a01b031661257c565b6000828152600660208190526040909120600581018390556003810180546001600160a01b0319163317905501805460ff19166001179055611550565b61135d600180546001019055565b600061136860015490565b9050604051806101000160405280828152602001856001600160a01b03168152602001848152602001336001600160a01b0316815260200160006001600160a01b03168152602001838152602001600115158152602001336001600160a01b0316815250600660008381526020019081526020016000206000820151816000015560208201518160010160006101000a8154816001600160a01b0302191690836001600160a01b031602179055506040820151816002015560608201518160030160006101000a8154816001600160a01b0302191690836001600160a01b0316021790555060808201518160040160006101000a8154816001600160a01b0302191690836001600160a01b0316021790555060a0820151816005015560c08201518160060160006101000a81548160ff02191690831515021790555060e08201518160060160016101000a8154816001600160a01b0302191690836001600160a01b0316021790555090505082846001600160a01b0316827f7d97da72e950426bedd7ad7228ffd65fade59107955150507e9495a8f1b39aa8336000876001336040516115469594939291906001600160a01b0395861681529385166020850152604084019290925215156060830152909116608082015260a00190565b60405180910390a4505b6004546005546040516001600160a01b039092169181156108fc0291906000818181858888f1935050505015801561158c573d6000803e3d6000fd5b506040516323b872dd60e01b81526001600160a01b038416906323b872dd906115bd903390309087906004016127d1565b600060405180830381600087803b1580156115d757600080fd5b505af11580156115eb573d6000803e3d6000fd5b505050506115f96001600055565b505050565b6060600061160b60015490565b905060008060005b838110156116a6576001600160a01b038616600660006116348460016129b5565b81526020810191909152604001600020600401546001600160a01b03161480156116815750600660006116688360016129b5565b815260208101919091526040016000206006015460ff16155b15611694576116916001846129b5565b92505b8061169e816129cd565b915050611613565b5060008267ffffffffffffffff8111156116d057634e487b7160e01b600052604160045260246000fd5b60405190808252806020026020018201604052801561170957816020015b6116f6612623565b8152602001906001900390816116ee5790505b50905060005b84811015610b28576001600160a01b038716600660006117308460016129b5565b81526020810191909152604001600020600401546001600160a01b031614801561177d5750600660006117648360016129b5565b815260208101919091526040016000206006015460ff16155b1561184f57600061178f8260016129b5565b600081815260066020818152604092839020835161010080820186528254825260018301546001600160a01b0390811694830194909452600283015495820195909552600382015483166060820152600482015483166080820152600582015460a08201529281015460ff8116151560c0850152939093041660e08201528551929350909185908790811061183457634e487b7160e01b600052603260045260246000fd5b602090810291909101015261184a6001866129b5565b945050505b80611859816129cd565b91505061170f565b611869612522565b6000818152600660205260409020600301546001600160a01b031633146118d25760405162461bcd60e51b815260206004820152601d60248201527f596f7520617265206e6f7420616c6c6f77656420746f2064656c6574650000006044820152606401610ba3565b6000818152600660208190526040909120015460ff16151560011461192f5760405162461bcd60e51b81526020600482015260136024820152724e4654206973206e6f7420666f722073616c6560681b6044820152606401610ba3565b60008181526006602081905260409182902060028101546003820180546001600160a01b0319908116909155600480840180543393168317905592909301805460ff1916905592516323b872dd60e01b81526001600160a01b038616926323b872dd926119a1923092918791016127d1565b600060405180830381600087803b1580156119bb57600080fd5b505af11580156119cf573d6000803e3d6000fd5b5050505050610db26001600055565b6119e6612522565b60008181526006602052604090206005810154600290910154348214611a6a5760405162461bcd60e51b815260206004820152603360248201527f596f75206d75737420706179206e667420707269636520666f7220627579696e60448201527219c81e5bdd5c8818da1bdbdcda5b99c81b999d606a1b6064820152608401610ba3565b6000838152600660208190526040909120015460ff161515600114611ac75760405162461bcd60e51b81526020600482015260136024820152724e4654206973206e6f7420666f722073616c6560681b6044820152606401610ba3565b6000838152600660205260408082206003015490516001600160a01b03909116913480156108fc02929091818181858888f19350505050158015611b0f573d6000803e3d6000fd5b506040516323b872dd60e01b81526001600160a01b038516906323b872dd90611b40903090339086906004016127d1565b600060405180830381600087803b158015611b5a57600080fd5b505af1158015611b6e573d6000803e3d6000fd5b50505060008481526006602081905260409091206004810180546001600160a01b0319163317905501805460ff1916905550611bae600280546001019055565b5050610db26001600055565b611bc2612522565b6000828152600760205260409020600301546001600160a01b03163314611c2b5760405162461bcd60e51b815260206004820152601f60248201527f596f7520617265206e6f742073656c6c6572206f662074686973206974656d006044820152606401610ba3565b60008281526007602052604090206008015460ff161515600114611c915760405162461bcd60e51b815260206004820152601c60248201527f54686973206974656d206973206e6f7420666f722061756374696f6e000000006044820152606401610ba3565b60408051808201825260078082526639b2b63632b91d60c91b60208084019190915260008681529190529190912060030154611cd691906001600160a01b031661257c565b604080518082018252600e81526d34b9a337b920bab1ba34b7b7101d60911b602080830191909152600085815260079091529190912060080154611d1d919060ff166125c1565b600082815260076020526040908190206002015490516323b872dd60e01b815282906001600160a01b038216906323b872dd90611d62903090339087906004016127d1565b600060405180830381600087803b158015611d7c57600080fd5b505af1158015611d90573d6000803e3d6000fd5b50505050604051806101200160405280858152602001846001600160a01b0316815260200183815260200160006001600160a01b03168152602001336001600160a01b0316815260200160008152602001600081526020016000815260200160001515815250600760008681526020019081526020016000206000820151816000015560208201518160010160006101000a8154816001600160a01b0302191690836001600160a01b031602179055506040820151816002015560608201518160030160006101000a8154816001600160a01b0302191690836001600160a01b0316021790555060808201518160040160006101000a8154816001600160a01b0302191690836001600160a01b0316021790555060a0820151816005015560c0820151816006015560e082015181600701556101008201518160080160006101000a81548160ff0219169083151502179055509050505050610db26001600055565b60606000611eff60035490565b905060008167ffffffffffffffff811115611f2a57634e487b7160e01b600052604160045260246000fd5b604051908082528060200260200182016040528015611fc757816020015b611fb46040518061012001604052806000815260200160006001600160a01b031681526020016000815260200160006001600160a01b0316815260200160006001600160a01b031681526020016000815260200160008152602001600081526020016000151581525090565b815260200190600190039081611f485790505b50905060005b828110156120b0576000611fe28260016129b5565b6000818152600760208181526040928390208351610120810185528154815260018201546001600160a01b039081169382019390935260028201549481019490945260038101548216606085015260048101549091166080840152600581015460a0840152600681015460c08401529081015460e0830152600881015460ff16151561010083015285519293509185908590811061209057634e487b7160e01b600052603260045260246000fd5b6020026020010181905250505080806120a8906129cd565b915050611fcd565b5092915050565b60008181526007602052604090206003546120d39060016129b5565b82106120de57600080fd5b60048101546001600160a01b031633146121325760405162461bcd60e51b8152602060048201526015602482015274596f7520686176652068696768657374206269642160581b6044820152606401610ba3565b600881015460ff16151560011461217f5760405162461bcd60e51b8152602060048201526011602482015270416c72656164792066696e69736865642160781b6044820152606401610ba3565b806007015442116121be5760405162461bcd60e51b8152602060048201526009602482015268446561646c696e652160b81b6044820152606401610ba3565b600381015460048201546001600160a01b03908116911614156122165760405162461bcd60e51b815260206004820152601060248201526f5468657265206973206e6f206269642160801b6044820152606401610ba3565b600181015460028201546040516323b872dd60e01b81526001600160a01b039092169182916323b872dd916122529130913391906004016127d1565b600060405180830381600087803b15801561226c57600080fd5b505af1158015612280573d6000803e3d6000fd5b505050600683015460038401546040519192506001600160a01b03169082156108fc029083906000818181858888f193505050501580156122c5573d6000803e3d6000fd5b5060088301805460ff191690556111ea600280546001019055565b606060006122ed60015490565b905060008060005b8381101561235557336006600061230d8460016129b5565b815260208101919091526040016000206006015461010090046001600160a01b03161415612343576123406001846129b5565b92505b8061234d816129cd565b9150506122f5565b5060008267ffffffffffffffff81111561237f57634e487b7160e01b600052604160045260246000fd5b6040519080825280602002602001820160405280156123b857816020015b6123a5612623565b81526020019060019003908161239d5790505b50905060005b848110156105e05733600660006123d68460016129b5565b815260208101919091526040016000206006015461010090046001600160a01b031614156124cb57600061240b8260016129b5565b600081815260066020818152604092839020835161010080820186528254825260018301546001600160a01b0390811694830194909452600283015495820195909552600382015483166060820152600482015483166080820152600582015460a08201529281015460ff8116151560c0850152939093041660e0820152855192935090918590879081106124b057634e487b7160e01b600052603260045260246000fd5b60209081029190910101526124c66001866129b5565b945050505b806124d5816129cd565b9150506123be565b610db282826040516024016124f3929190612993565b60408051601f198184030181529190526020810180516001600160e01b0316632d839cb360e21b179052612602565b600260005414156125755760405162461bcd60e51b815260206004820152601f60248201527f5265656e7472616e637947756172643a207265656e7472616e742063616c6c006044820152606401610ba3565b6002600055565b610db28282604051602401612592929190612945565b60408051601f198184030181529190526020810180516001600160e01b031663319af33360e01b179052612602565b610db282826040516024016125d792919061296f565b60408051601f198184030181529190526020810180516001600160e01b031663c3b5563560e01b1790525b60006a636f6e736f6c652e6c6f679050600080835160208501845afa505050565b6040805161010081018252600080825260208201819052918101829052606081018290526080810182905260a0810182905260c0810182905260e081019190915290565b600060208284031215612678578081fd5b8135612683816129fe565b9392505050565b60006020828403121561269b578081fd5b8151612683816129fe565b600080604083850312156126b8578081fd5b82356126c3816129fe565b946020939093013593505050565b6000806000606084860312156126e5578081fd5b83356126f0816129fe565b95602085013595506040909401359392505050565b6000806000806080858703121561271a578081fd5b8435612725816129fe565b966020860135965060408601359560600135945092505050565b600060208284031215612750578081fd5b5035919050565b60008060408385031215612769578182fd5b82359150602083013561277b816129fe565b809150509250929050565b60008151808452815b818110156127ab5760208185018101518683018201520161278f565b818111156127bc5782602083870101525b50601f01601f19169290920160200192915050565b6001600160a01b039384168152919092166020820152604081019190915260600190565b602080825282518282018190526000919060409081850190868401855b828110156128a657815180518552868101516001600160a01b0316878601528581015186860152606080820151612853828801826001600160a01b03169052565b50506080818101516001600160a01b03169086015260a0808201519086015260c0808201519086015260e08082015190860152610100908101511515908501526101209093019290850190600101612812565b5091979650505050505050565b602080825282518282018190526000919060409081850190868401855b828110156128a657815180518552868101516001600160a01b0390811688870152868201518787015260608083015182169087015260808083015182169087015260a0808301519087015260c08083015115159087015260e091820151169085015261010090930192908501906001016128d0565b6040815260006129586040830185612786565b905060018060a01b03831660208301529392505050565b6040815260006129826040830185612786565b905082151560208301529392505050565b6040815260006129a66040830185612786565b90508260208301529392505050565b600082198211156129c8576129c86129e8565b500190565b60006000198214156129e1576129e16129e8565b5060010190565b634e487b7160e01b600052601160045260246000fd5b6001600160a01b0381168114612a1357600080fd5b5056fea2646970667358221220b5d6654ed80205fc330296d768449f9711d184c0ba4ac4a565b0e00cf05f9a6a64736f6c63430008040033",
  "linkReferences": {},
  "deployedLinkReferences": {}
}